{
  "contractName": "LinkedList",
  "abi": [
    {
      "constant": true,
      "inputs": [],
      "name": "length",
      "outputs": [
        {
          "name": "",
          "type": "uint256"
        }
      ],
      "payable": false,
      "stateMutability": "view",
      "type": "function"
    },
    {
      "constant": true,
      "inputs": [],
      "name": "head",
      "outputs": [
        {
          "name": "",
          "type": "bytes32"
        }
      ],
      "payable": false,
      "stateMutability": "view",
      "type": "function"
    },
    {
      "constant": true,
      "inputs": [],
      "name": "listName",
      "outputs": [
        {
          "name": "",
          "type": "string"
        }
      ],
      "payable": false,
      "stateMutability": "view",
      "type": "function"
    },
    {
      "constant": true,
      "inputs": [
        {
          "name": "",
          "type": "bytes32"
        }
      ],
      "name": "nodes",
      "outputs": [
        {
          "name": "next",
          "type": "bytes32"
        },
        {
          "name": "data",
          "type": "string"
        }
      ],
      "payable": false,
      "stateMutability": "view",
      "type": "function"
    },
    {
      "anonymous": false,
      "inputs": [
        {
          "indexed": false,
          "name": "head",
          "type": "bytes32"
        },
        {
          "indexed": false,
          "name": "data",
          "type": "string"
        },
        {
          "indexed": false,
          "name": "next",
          "type": "bytes32"
        }
      ],
      "name": "EntryAdded",
      "type": "event"
    },
    {
      "constant": false,
      "inputs": [
        {
          "name": "_listname",
          "type": "string"
        }
      ],
      "name": "initialize",
      "outputs": [],
      "payable": false,
      "stateMutability": "nonpayable",
      "type": "function"
    },
    {
      "constant": false,
      "inputs": [
        {
          "name": "_data",
          "type": "string"
        }
      ],
      "name": "addNode",
      "outputs": [
        {
          "name": "",
          "type": "bool"
        }
      ],
      "payable": false,
      "stateMutability": "nonpayable",
      "type": "function"
    },
    {
      "constant": false,
      "inputs": [],
      "name": "popNode",
      "outputs": [
        {
          "name": "",
          "type": "bool"
        }
      ],
      "payable": false,
      "stateMutability": "nonpayable",
      "type": "function"
    },
    {
      "constant": true,
      "inputs": [],
      "name": "getNodeExternal",
      "outputs": [
        {
          "name": "",
          "type": "bytes32"
        },
        {
          "name": "",
          "type": "string"
        }
      ],
      "payable": false,
      "stateMutability": "view",
      "type": "function"
    }
  ],
  "bytecode": "0x608060405234801561001057600080fd5b50610d15806100206000396000f3fe60806040526004361061008e576000357c0100000000000000000000000000000000000000000000000000000000900463ffffffff1680631f7b6d32146100935780634d5b21dc146100be5780638994dd8e146100ed5780638f7dcfa3146101cd578063a469b1a4146101f8578063c3ae77a714610288578063d86e697d1461031f578063f62d1888146103da575b600080fd5b34801561009f57600080fd5b506100a86104a2565b6040518082815260200191505060405180910390f35b3480156100ca57600080fd5b506100d36104a8565b604051808215151515815260200191505060405180910390f35b3480156100f957600080fd5b506101b36004803603602081101561011057600080fd5b810190808035906020019064010000000081111561012d57600080fd5b82018360208201111561013f57600080fd5b8035906020019184600183028401116401000000008311171561016157600080fd5b91908080601f016020809104026020016040519081016040528093929190818152602001838380828437600081840152601f19601f820116905080830192505050505050509192919290505050610587565b604051808215151515815260200191505060405180910390f35b3480156101d957600080fd5b506101e2610746565b6040518082815260200191505060405180910390f35b34801561020457600080fd5b5061020d61074c565b6040518080602001828103825283818151815260200191508051906020019080838360005b8381101561024d578082015181840152602081019050610232565b50505050905090810190601f16801561027a5780820380516001836020036101000a031916815260200191505b509250505060405180910390f35b34801561029457600080fd5b5061029d6107ea565b6040518083815260200180602001828103825283818151815260200191508051906020019080838360005b838110156102e35780820151818401526020810190506102c8565b50505050905090810190601f1680156103105780820380516001836020036101000a031916815260200191505b50935050505060405180910390f35b34801561032b57600080fd5b506103586004803603602081101561034257600080fd5b81019080803590602001909291905050506108c3565b6040518083815260200180602001828103825283818151815260200191508051906020019080838360005b8381101561039e578082015181840152602081019050610383565b50505050905090810190601f1680156103cb5780820380516001836020036101000a031916815260200191505b50935050505060405180910390f35b3480156103e657600080fd5b506104a0600480360360208110156103fd57600080fd5b810190808035906020019064010000000081111561041a57600080fd5b82018360208201111561042c57600080fd5b8035906020019184600183028401116401000000008311171561044e57600080fd5b91908080601f016020809104026020016040519081016040528093929190818152602001838380828437600081840152601f19601f82011690508083019250505050505050919291929050505061097f565b005b60345481565b600080603454111515610523576040517f08c379a00000000000000000000000000000000000000000000000000000000081526004018080602001828103825260168152602001807f6572726f722e2e2e6865616420697320656d707479200000000000000000000081525060200191505060405180910390fd5b600060336000603554815260200190815260200160002060000154905060336000603554815260200190815260200160002060008082016000905560018201600061056e9190610b5f565b5050806035819055506001603454036034819055505090565b6000610591610ba7565b6040805190810160405280603554815260200184815250905060008160200151603454426040516020018084805190602001908083835b6020831015156105ed57805182526020820191506020810190506020830392506105c8565b6001836020036101000a03801982511681845116808217855250505050505090500183815260200182815260200193505050506040516020818303038152906040528051906020012090508160336000838152602001908152602001600020600082015181600001556020820151816001019080519060200190610672929190610bc4565b50905050806035819055506001603454016034819055507ffecb614bfc5235792e3468f7df8201658b767ec523d3f7be2c064db1e4f8d9c3603554836020015184600001516040518084815260200180602001838152602001828103825284818151815260200191508051906020019080838360005b838110156107035780820151818401526020810190506106e8565b50505050905090810190601f1680156107305780820380516001836020036101000a031916815260200191505b5094505050505060405180910390a15050919050565b60355481565b60368054600181600116156101000203166002900480601f0160208091040260200160405190810160405280929190818152602001828054600181600116156101000203166002900480156107e25780601f106107b7576101008083540402835291602001916107e2565b820191906000526020600020905b8154815290600101906020018083116107c557829003601f168201915b505050505081565b6000606060336000603554815260200190815260200160002060000154603360006035548152602001908152602001600020600101808054600181600116156101000203166002900480601f0160208091040260200160405190810160405280929190818152602001828054600181600116156101000203166002900480156108b45780601f10610889576101008083540402835291602001916108b4565b820191906000526020600020905b81548152906001019060200180831161089757829003601f168201915b50505050509050915091509091565b6033602052806000526040600020600091509050806000015490806001018054600181600116156101000203166002900480601f0160208091040260200160405190810160405280929190818152602001828054600181600116156101000203166002900480156109755780601f1061094a57610100808354040283529160200191610975565b820191906000526020600020905b81548152906001019060200180831161095857829003601f168201915b5050505050905082565b600060019054906101000a900460ff168061099e575061099d610b4e565b5b806109b557506000809054906101000a900460ff16155b1515610a4f576040517f08c379a000000000000000000000000000000000000000000000000000000000815260040180806020018281038252602e8152602001807f436f6e747261637420696e7374616e63652068617320616c726561647920626581526020017f656e20696e697469616c697a656400000000000000000000000000000000000081525060400191505060405180910390fd5b60008060019054906101000a900460ff1690506001600060016101000a81548160ff02191690831515021790555060016000806101000a81548160ff0219169083151502179055506000825110151515610b11576040517f08c379a000000000000000000000000000000000000000000000000000000000815260040180806020018281038252600e8152602001807f496e76616c6964204c656e67746800000000000000000000000000000000000081525060200191505060405180910390fd5b60006034819055508160369080519060200190610b2f929190610c44565b5080600060016101000a81548160ff0219169083151502179055505050565b600080303b90506000811491505090565b50805460018160011615610100020316600290046000825580601f10610b855750610ba4565b601f016020900490600052602060002090810190610ba39190610cc4565b5b50565b604080519081016040528060008019168152602001606081525090565b828054600181600116156101000203166002900490600052602060002090601f016020900481019282601f10610c0557805160ff1916838001178555610c33565b82800160010185558215610c33579182015b82811115610c32578251825591602001919060010190610c17565b5b509050610c409190610cc4565b5090565b828054600181600116156101000203166002900490600052602060002090601f016020900481019282601f10610c8557805160ff1916838001178555610cb3565b82800160010185558215610cb3579182015b82811115610cb2578251825591602001919060010190610c97565b5b509050610cc09190610cc4565b5090565b610ce691905b80821115610ce2576000816000905550600101610cca565b5090565b9056fea165627a7a7230582046167dd0978a561d15d25f43d094d38c578b58e23173893093d615f3e9f8c3de0029",
  "source": "pragma solidity >=0.4.24 <0.6.0;\n\nimport \"node_modules/zos-lib/contracts/Initializable.sol\";\n\ncontract LinkedList is Initializable{\n\n  event EntryAdded(bytes32 head,string data,bytes32 next);\n  //struct will be our node\n  struct Node{\n    bytes32 next;\n    string data;\n  }\n\n //Mapping will hold nodes\n  mapping(bytes32 => Node) public nodes;\n\n  //Length of LinkedList (initialize with constructor/initalizer)\n  uint public length;\n  //Head of list\n  bytes32 public head;\n\n  string public listName;\n\n  function initialize(string memory _listname) public initializer  {\n    require(bytes(_listname).length >= 0,\"Invalid Length\");\n    length = 0;\n    listName = _listname;\n  }\n\n  function addNode(string memory _data) public returns(bool){\n    Node memory node = Node(head,_data);\n    bytes32 id = keccak256(abi.encodePacked(node.data,length,block.timestamp));\n\n    nodes[id] = node;\n    head = id;\n    length = length + 1;\n\n    emit EntryAdded( head,node.data, node.next);\n\n  }\n\n  function popNode()public returns(bool){\n    require(length > 0,\"error...head is empty \");\n    bytes32 newHead = nodes[head].next;\n\n    delete nodes[head];\n    head = newHead;\n    length = length - 1;\n  }\n\n  function getNodeExternal()external view returns(bytes32 , string memory){\n    return (nodes[head].next,nodes[head].data);\n  }\n\n\n}",
  "sourcePath": "/home/medha/Desktop/OracleAndSmartContracts/EVM_Package_LinkedList/contracts/LinkedList.sol",
  "compiler": {
    "name": "solc",
    "version": "0.5.0+commit.1d4f565a.Emscripten.clang"
  },
  "schemaVersion": "3.0.1",
  "updatedAt": "2019-05-11T13:11:20.413Z",
  "devdoc": {
    "methods": {}
  },
  "userdoc": {
    "methods": {}
  }
}